{
  "contractName": "IDMS",
  "abi": [
    {
      "constant": false,
      "inputs": [
        {
          "name": "rollNo",
          "type": "uint256"
        },
        {
          "name": "nm",
          "type": "string"
        },
        {
          "name": "gp",
          "type": "string"
        }
      ],
      "name": "addStudent",
      "outputs": [],
      "payable": false,
      "stateMutability": "nonpayable",
      "type": "function"
    },
    {
      "constant": false,
      "inputs": [
        {
          "name": "rollNo",
          "type": "uint256"
        }
      ],
      "name": "getStudent",
      "outputs": [
        {
          "name": "",
          "type": "string"
        },
        {
          "name": "",
          "type": "string"
        }
      ],
      "payable": false,
      "stateMutability": "nonpayable",
      "type": "function"
    }
  ],
  "bytecode": "0x6060604052341561000f57600080fd5b6105178061001e6000396000f30060606040526004361061004c576000357c0100000000000000000000000000000000000000000000000000000000900463ffffffff168063473e991414610051578063642f9163146100fa575b600080fd5b341561005c57600080fd5b6100f8600480803590602001909190803590602001908201803590602001908080601f0160208091040260200160405190810160405280939291908181526020018383808284378201915050505050509190803590602001908201803590602001908080601f01602080910402602001604051908101604052809392919081815260200183838082843782019150505050505091905050610202565b005b341561010557600080fd5b61011b6004808035906020019091905050610289565b604051808060200180602001838103835285818151815260200191508051906020019080838360005b8381101561015f578082015181840152602081019050610144565b50505050905090810190601f16801561018c5780820380516001836020036101000a031916815260200191505b50838103825284818151815260200191508051906020019080838360005b838110156101c55780820151818401526020810190506101aa565b50505050905090810190601f1680156101f25780820380516001836020036101000a031916815260200191505b5094505050505060405180910390f35b600080600085815260200190815260200160002090508060020160009054906101000a900460ff161561023457600080fd5b8281600001908051906020019061024c929190610432565b5081816001019080519060200190610265929190610432565b5060018160020160006101000a81548160ff02191690831515021790555050505050565b6102916104b2565b6102996104b2565b60008084815260200190815260200160002060020160009054906101000a900460ff1615156102c757600080fd5b600080848152602001908152602001600020600001600080858152602001908152602001600020600101818054600181600116156101000203166002900480601f0160208091040260200160405190810160405280929190818152602001828054600181600116156101000203166002900480156103865780601f1061035b57610100808354040283529160200191610386565b820191906000526020600020905b81548152906001019060200180831161036957829003601f168201915b50505050509150808054600181600116156101000203166002900480601f0160208091040260200160405190810160405280929190818152602001828054600181600116156101000203166002900480156104225780601f106103f757610100808354040283529160200191610422565b820191906000526020600020905b81548152906001019060200180831161040557829003601f168201915b5050505050905091509150915091565b828054600181600116156101000203166002900490600052602060002090601f016020900481019282601f1061047357805160ff19168380011785556104a1565b828001600101855582156104a1579182015b828111156104a0578251825591602001919060010190610485565b5b5090506104ae91906104c6565b5090565b602060405190810160405280600081525090565b6104e891905b808211156104e45760008160009055506001016104cc565b5090565b905600a165627a7a723058201561275d58c5e8dba5934da6ea6c19468e57baa21e9255b07c210f22d833a0170029",
  "source": "pragma solidity ^0.4.17;\ncontract IDMS {\n\t\n\t// Student Structure\n\tstruct Student {\n\t\tstring name;\n\t\tstring GPA;\n\t\tbool isInitialized;\n\t}\n\n\t// To map a particular student's roll number to struct\n\tmapping(uint => Student) StudentIdentity;\n\n\t// College Structure\n\tstruct College {\n\t\tstring name;\n\t}\n\n\t// To map a particular college's ID(given randomly) to struct\n\tmapping(uint => College) CollegeIdentity;\n\n\t// Function to Get Student from StudentIdentity\n\tfunction getStudent(uint rollNo) public returns (string, string) {\n\t\tif(!StudentIdentity[rollNo].isInitialized) {\n\t\t\trevert();\n\t\t} else {\n\t\t\treturn (StudentIdentity[rollNo].name, StudentIdentity[rollNo].GPA);\n\t\t}\n\t}\n\t// Function to Add Student to StudentIdentity\n\tfunction addStudent(uint rollNo, string nm, string gp) public {\n\t\tvar std = StudentIdentity[rollNo];\n\t\tif(std.isInitialized) {\n\t\t\trevert();\n\t\t} else {\n\t\t\tstd.name = nm;\n\t\t\tstd.GPA = gp;\n\t\t\tstd.isInitialized = true;\n\t\t}\n\t}\n}",
  "sourcePath": "/Users/dhruminkhatri/Documents/Node_js/blockchain/IDMS/contracts/IDMS.sol",
  "compiler": {
    "name": "solc",
    "version": "0.4.18+commit.9cf6e910.Emscripten.clang"
  },
  "schemaVersion": "1.0.1",
  "updatedAt": "2018-01-02T20:00:49.603Z"
}