{
  "contractName": "IDMS",
  "abi": [
    {
      "constant": false,
      "inputs": [
        {
          "name": "rollNo",
          "type": "uint256"
        }
      ],
      "name": "getStudent",
      "outputs": [
        {
          "name": "",
          "type": "string"
        },
        {
          "name": "",
          "type": "string"
        }
      ],
      "payable": false,
      "stateMutability": "nonpayable",
      "type": "function"
    },
    {
      "constant": false,
      "inputs": [
        {
          "name": "rollNo",
          "type": "uint256"
        },
        {
          "name": "nm",
          "type": "string"
        },
        {
          "name": "gp",
          "type": "string"
        }
      ],
      "name": "addStudent",
      "outputs": [],
      "payable": false,
      "stateMutability": "nonpayable",
      "type": "function"
    }
  ],
  "bytecode": "0x608060405234801561001057600080fd5b50610510806100206000396000f30060806040526004361061004c576000357c0100000000000000000000000000000000000000000000000000000000900463ffffffff168063473e991414610051578063642f91631461010a575b600080fd5b34801561005d57600080fd5b5061010860048036038101908080359060200190929190803590602001908201803590602001908080601f0160208091040260200160405190810160405280939291908181526020018383808284378201915050505050509192919290803590602001908201803590602001908080601f016020809104026020016040519081016040528093929190818152602001838380828437820191505050505050919291929050505061021c565b005b34801561011657600080fd5b50610135600480360381019080803590602001909291905050506102a3565b604051808060200180602001838103835285818151815260200191508051906020019080838360005b8381101561017957808201518184015260208101905061015e565b50505050905090810190601f1680156101a65780820380516001836020036101000a031916815260200191505b50838103825284818151815260200191508051906020019080838360005b838110156101df5780820151818401526020810190506101c4565b50505050905090810190601f16801561020c5780820380516001836020036101000a031916815260200191505b5094505050505060405180910390f35b600080600085815260200190815260200160002090508060020160009054906101000a900460ff161561024e57600080fd5b8281600001908051906020019061026692919061043f565b508181600101908051906020019061027f92919061043f565b5060018160020160006101000a81548160ff02191690831515021790555050505050565b60608060008084815260200190815260200160002060020160009054906101000a900460ff1615156102d457600080fd5b600080848152602001908152602001600020600001600080858152602001908152602001600020600101818054600181600116156101000203166002900480601f0160208091040260200160405190810160405280929190818152602001828054600181600116156101000203166002900480156103935780601f1061036857610100808354040283529160200191610393565b820191906000526020600020905b81548152906001019060200180831161037657829003601f168201915b50505050509150808054600181600116156101000203166002900480601f01602080910402602001604051908101604052809291908181526020018280546001816001161561010002031660029004801561042f5780601f106104045761010080835404028352916020019161042f565b820191906000526020600020905b81548152906001019060200180831161041257829003601f168201915b5050505050905091509150915091565b828054600181600116156101000203166002900490600052602060002090601f016020900481019282601f1061048057805160ff19168380011785556104ae565b828001600101855582156104ae579182015b828111156104ad578251825591602001919060010190610492565b5b5090506104bb91906104bf565b5090565b6104e191905b808211156104dd5760008160009055506001016104c5565b5090565b905600a165627a7a723058204d43379f263d57e42d0cee5cfb996e3c1a7007d17a925fc6a6c12b674ed392570029",
  "source": "pragma solidity ^0.4.17;\ncontract IDMS {\n\t\n\t// Student Structure\n\tstruct Student {\n\t\tstring name;\n\t\tstring GPA;\n\t\tbool isInitialized;\n\t}\n\n\t// To map a particular student's roll number to struct\n\tmapping(uint => Student) StudentIdentity;\n\n\t// College Structure\n\tstruct College {\n\t\tstring name;\n\t}\n\n\t// To map a particular college's ID(given randomly) to struct\n\tmapping(uint => College) CollegeIdentity;\n\n\t// Function to Get Student from StudentIdentity\n\tfunction getStudent(uint rollNo) public returns (string, string) {\n\t\tif(!StudentIdentity[rollNo].isInitialized) {\n\t\t\trevert();\n\t\t} else {\n\t\t\treturn (StudentIdentity[rollNo].name, StudentIdentity[rollNo].GPA);\n\t\t}\n\t}\n\t// Function to Add Student to StudentIdentity\n\tfunction addStudent(uint rollNo, string nm, string gp) public {\n\t\tvar std = StudentIdentity[rollNo];\n\t\tif(std.isInitialized) {\n\t\t\trevert();\n\t\t} else {\n\t\t\tstd.name = nm;\n\t\t\tstd.GPA = gp;\n\t\t\tstd.isInitialized = true;\n\t\t}\n\t}\n}",
  "sourcePath": "/Users/dhruminkhatri/Documents/Node_js/BlockChain-Demo/contracts/IDMS.sol",
  "compiler": {
    "name": "solc",
    "version": "0.4.26+commit.4563c3fc.Emscripten.clang"
  },
  "schemaVersion": "2.0.3",
  "updatedAt": "2019-12-27T16:38:24.081Z"
}